{
  "contractName": "TodoList",
  "abi": [
    {
      "constant": true,
      "inputs": [],
      "name": "taskCount",
      "outputs": [
        {
          "name": "",
          "type": "uint256"
        }
      ],
      "payable": false,
      "stateMutability": "view",
      "type": "function",
      "signature": "0xb6cb58a5"
    }
  ],
  "bytecode": "0x608060405260008055348015601357600080fd5b506098806100226000396000f3fe6080604052348015600f57600080fd5b50600436106045576000357c010000000000000000000000000000000000000000000000000000000090048063b6cb58a514604a575b600080fd5b60506066565b6040518082815260200191505060405180910390f35b6000548156fea165627a7a72305820580b1fe3430cefae243dbb02352329ff6e45201d8635512d7adf7e272652b6740029",
  "source": "pragma solidity ^0.5.2;\n\ncontract TodoList {\n   uint public taskCount = 0;\n}\n",
  "sourcePath": "/Users/alvarobodero/Code/eth-todo-list/contracts/TodoList.sol",
  "compiler": {
    "name": "solc",
    "version": "0.5.2+commit.1df8f40c.Emscripten.clang"
  },
  "schemaVersion": "3.0.1",
  "updatedAt": "2022-05-30T03:16:14.265Z",
  "devdoc": {
    "methods": {}
  },
  "userdoc": {
    "methods": {}
  }
}